:020000041A00E0
:10000000008000109508001A7901001A7B01001A7F
:100010007D01001A7F01001A8101001AFA6FFF5357
:100020000000000000000000000000008301001A32
:100030008501001A000000008701001AD917001A74
:10004000BB01001ABB01001ABB01001A000000002E
:10005000BB01001ABB01001ABB01001ABB01001A48
:10006000B91A001ABB01001ABB01001ABB01001A21
:10007000BB01001ABB01001ABB01001ABB01001A28
:10008000BB01001ABB01001ABB01001ABB01001A18
:10009000BB01001ABB01001ABB01001ABB01001A08
:1000A000BB01001ABB01001ABB01001ABB01001AF8
:1000B000BB01001ABB01001ABB01001ABB01001AE8
:1000C000BB01001ABB01001ABB01001ABB01001AD8
:1000D000BB01001ABB01001ABB01001ABB01001AC8
:1000E000BB01001ABB01001ABB01001ABB01001AB8
:1000F00000000000BB01001ABB01001ABB01001A7E
:1001000000000000BB01001ABB01001ABB01001A6D
:10011000BB01001A3428001A00000010480000003B
:100120003428001A00000810000000003428001ACB
:1001300000000020000000003428001A0080002089
:10014000000000003428001A00C000200000000059
:1001500048000010580100000000081000000000D6
:1001600000000020000000000080002000000000CF
:1001700000C0002000000000FEE7FEE7FEE7FEE70B
:10018000FEE7FEE7FEE7FEE7FEE7002393420AD222
:1001900010B450F8044B41F8044B04339342F8D3A5
:1001A0005DF8044B7047704700238B4204D2002255
:1001B00040F8042B0433F8E77047FEE7FFFFFFFF2A
:1001C000FFFFFFFFFFFFFFFFFFFFFFFFFFFFFFFF3F
:1001D000FFFFFFFFFFFFFFFFFFFFFFFFFFFFFFFF2F
:1001E000FFFFFFFFFFFFFFFFFFFFFFFFFFFFFFFF1F
:1001F000FFFFFFFFFFFFFFFFFFFFFFFFFFFFFFFF0F
:10020000FFFFFFFFFFFFFFFFFFFFFFFFFFFFFFFFFE
:10021000FFFFFFFFFFFFFFFFFFFFFFFFFFFFFFFFEE
:10022000FFFFFFFFFFFFFFFFFFFFFFFFFFFFFFFFDE
:10023000FFFFFFFFFFFFFFFFFFFFFFFFFFFFFFFFCE
:10024000FFFFFFFFFFFFFFFFFFFFFFFFFFFFFFFFBE
:10025000FFFFFFFFFFFFFFFFFFFFFFFFFFFFFFFFAE
:10026000FFFFFFFFFFFFFFFFFFFFFFFFFFFFFFFF9E
:10027000FFFFFFFFFFFFFFFFFFFFFFFFFFFFFFFF8E
:10028000FFFFFFFFFFFFFFFFFFFFFFFFFFFFFFFF7E
:10029000FFFFFFFFFFFFFFFFFFFFFFFFFFFFFFFF6E
:1002A000FFFFFFFFFFFFFFFFFFFFFFFFFFFFFFFF5E
:1002B000FFFFFFFFFFFFFFFFFFFFFFFFFFFFFFFF4E
:1002C000FFFFFFFFFFFFFFFFFFFFFFFFFFFFFFFF3E
:1002D000FFFFFFFFFFFFFFFFFFFFFFFFFFFFFFFF2E
:1002E000FFFFFFFFFFFFFFFFFFFFFFFFFFFFFFFF1E
:1002F000FFFFFFFFFFFFFFFFFFFFFFFFFFFFFFFF0E
:10030000014B00221A70704770000010014B002250
:100310001A7070477000001010B504465F4B1B78D0
:100320000A2B00F2B780DFE803F00624424B545D4D
:100330006D8B949DAC00002000F056F9013C032C1D
:1003400013D8DFE804F002060A0E544B01221A709B
:1003500050E0524B05221A704CE0504B06221A70A6
:1003600048E04E4B0A221A7044E04C4B00221A70AF
:1003700040E0012000F038F9013C032C13D8DFE8FD
:1003800004F002060A0E454B02221A7032E0434B7B
:1003900003221A702EE0414B04221A702AE03F4BD0
:1003A00000221A7026E03D4B01221A7022E0022042
:1003B00000F01AF9042C1DD1384B01221A7019E0F3
:1003C000032000F011F9042C14D1344B01221A70CF
:1003D00010E0042000F008F9042C0BD12F4B01226F
:1003E0001A7007E0052000F0FFF8762000F0F6F91B
:1003F000042C00D010BD294B00221A70762000F08A
:100400001AFAF7E7062000F0EFF8013C032C13D8A6
:10041000DFE804F002060A0E204B07221A70E9E713
:100420001E4B08221A70E5E71C4B09221A70E1E7FF
:100430001A4B00221A70DDE7184B06221A70D9E712
:10044000072000F0D1F8042CD4D1144B06221A70E6
:10045000D0E7082000F0C8F8042CCBD10F4B0622BF
:100460001A70C7E7092000F0BFF8762000F0B6F94F
:10047000042CBFD1094B06221A70762000F0DBF95C
:10048000B8E70A2000F0B0F8042CB3D1034B0022E7
:100490001A70AFE7FFF734FFACE700BF7000001041
:1004A0002DE9F0438DB000250A95099508954FF484
:1004B000FA684FF00009CDE90689012404940394F9
:1004C000029432260027CDE90067224624211948EC
:1004D00001F06DFB0A9509950895CDE9068904940C
:1004E00003940294CDE9006722462521124801F0C9
:1004F0005EFB0A9509950895CDE906890494039455
:100500000294CDE90067224626210C4801F04FFBFA
:100510000A9509950895CDE90689049403940294F7
:10052000CDE9006722462721054801F040FB0DB0C8
:10053000BDE8F083500100107800001008010010A1
:10054000C000001008B5064801F056FB054801F050
:1005500053FB054801F050FB044801F04DFB08BD7A
:10056000500100107800001008010010C0000010B9
:1005700008B5154801F0E8FA022810D0134801F038
:10058000E3FA022810D0124801F0DEFA022810D057
:10059000104801F0D9FA022810D0002008BD0A48FE
:1005A00001F0D5FA0120F9E7084801F0D0FA02205D
:1005B000F4E7074801F0CBFA0320EFE7054801F024
:1005C000C6FA0420EAE700BF5001001078000010CE
:1005D00008010010C000001008B54FF4E1310320FD
:1005E00001F054F808BDFFFF10B504460A280BD8E7
:1005F000DFE800F0061625303B4651606F7E8D0027
:100600004B4B1B68834200D110BD4A49032001F0C7
:1006100088F84949032001F084F8454B1C60F3E752
:10062000434B1B688342EFD04449032001F079F823
:100630004349032001F075F83D4B1C60E4E73C4B57
:100640001B688342E0D03F49032001F06AF8384B31
:100650001C60D9E7364B1B688342D5D03A4903204A
:1006600001F05FF8324B1C60CEE7314B1B688342D0
:10067000CAD03649032001F054F82D4B1C60C3E763
:100680002B4B1B688342BFD03149032001F049F84E
:10069000274B1C60B8E7264B1B688342B4D0254922
:1006A000032001F03EF82B49032001F03AF8204BDB
:1006B0001C60A9E71E4B1B688342A5D02649032076
:1006C00001F02FF82549032001F02BF8184B1C608E
:1006D0009AE7174B1B68834296D02149032001F00B
:1006E00020F81E49032001F01CF8114B1C608BE719
:1006F0000F4B1B68834287D01A49032001F011F881
:100700001649032001F00DF8094B1C607CE7084BEB
:100710001B6883423FF478AF1349032001F001F8CE
:100720000E49032000F0FDFF014B1C606CE700BF89
:10073000000000108C21001AD021001A1022001A8B
:100740005422001A8822001AC022001AF822001A25
:100750003023001A8C23001AF423001A7824001A7C
:10076000B424001A0825001A2025001A00B58DB0FF
:100770006422002306A801F0E3FA642200236846FD
:1007800001F0DEFA01F0A6F9FFF7C0FDFFF724FF44
:10079000FFF786FE06A801F0E3FA68B9684601F0A3
:1007A000DFFA80B90B4B00221A600A4B1B68002B42
:1007B000F0D0094A1360EDE7074C2068FFF7ACFD65
:1007C00000232360EAE7FFF7BDFEFFF7D1FE014BF0
:1007D0001860EAE7480000104C00001008B56138C6
:1007E000152810D8DFE800F0100F0F0F0F0F0F0FB4
:1007F0000F0F0F0F0F0F0F0F0F0B0F1A0F150121F8
:100800002C2001F0EFF808BD01212B2001F0EAF8BF
:10081000F9E701212D2001F0E5F8F4E701212B2073
:1008200001F0E0F801212C2001F0DCF801212D205D
:1008300001F0D8F8E7E708B56138152810D8DFE8E7
:1008400000F0100F0F0F0F0F0F0F0F0F0F0F0F0FE5
:100850000F0F0F0B0F1A0F1500212C2001F0C2F8FB
:1008600008BD00212B2001F0BDF8F9E700212D2063
:1008700001F0B8F8F4E700212B2001F0B3F80021D3
:100880002C2001F0AFF800212D2001F0ABF8E7E7B4
:100890007047FFFF10B572B6194B1A4A1A6004333D
:1008A000194A1A60002305E0184A4FF0FF3142F858
:1008B00023100133072BF7D962B6154B07E003F17C
:1008C0000C049A6859681868FFF75FFC2346114AC0
:1008D0009342F4D306E01C46596854F8080BFFF71E
:1008E00063FC23460C4A9342F5D300F08FFE01F0DF
:1008F000D9FBFFF7CDFFFFF739FF30BFFDE700BFA2
:10090000003105400010DF10FFF7DF0180E200E05A
:100910001401001A5001001A7801001A704770473C
:100920000022052A19D870B40C4911F8125001EBB5
:1009300042014C780A4B05F5006653F82610012059
:10094000A040014343F8261003EB4513002119553D
:100950000132052AE8D970BC704770478C25001A0F
:1009600000400F400023032B16D830B40B4911F878
:10097000132001EB43014D78094C02F5006254F855
:1009800022100120A84021EA000144F8221001337E
:10099000032BEBD930BC7047704700BF8425001A89
:1009A00000400F400023082B16D830B40B4911F833
:1009B000132001EB43014D78094C02F5006254F815
:1009C00022100120A84021EA000144F8221001333E
:1009D000082BEBD930BC7047704700BF9825001A30
:1009E00000400F4010B582B0084C6946204600F028
:1009F000F5F9074A6946204600F010FA00226946D8
:100A0000204600F024FA02B010BD00BF00300E40B6
:100A1000801A060010B50B4C204600F0DBFD636821
:100A200023F004036360236823F0FF0343F007030C
:100A300023600549204600F0AEFD636843F00203E1
:100A4000636010BD00500C40A086010008B5002076
:100A500000F0A4F8044B40F60802C3F8842C0349C4
:100A6000002000F0ADF808BD0060084040420F00D3
:100A700010B5074C204600F0D5F84FF4E131204680
:100A800000F01AF90323E3600123E36510BD00BF02
:100A900000100C4008B5FFF7EBFF094800F0AEFC72
:100AA000FFF780FFFFF79EFFFFF7B4FFFFF7CEFFD2
:100AB000FFF736FFFFF756FF00F0D0F908BD00BF83
:100AC00000400F4008B5FFF7D3FF08BD00231C2BE3
:100AD00012D810B4094A02EB830112F823404A7875
:100AE000488802EB4412064941F8220001331C2BCE
:100AF000F0D95DF8044B7047704700BFB425001A69
:100B00000060084010B5174AD2F8203123F4704332
:100B100043F41043C2F82031D2F8243123F4704357
:100B200043F41043C2F8243101220F49062000F09B
:100B300067FC00244CB10B4B5A6822F00C025A603F
:100B40005A6842F003025A6010BD084800EB840165
:100B500001238A78497810F8240000F0ABFB0134B7
:100B6000E8E700BF0030044000CB280CB025001A95
:100B700008B5FFF7ABFFFFF7C5FF08BD012909D195
:100B8000C0EBC0008200044B13441A69137DDBB232
:100B9000042BFBD0704700BF0400001070B5054661
:100BA000064EC400221A93003344988800F0E6FBF6
:100BB000641BA300F3586C229A6170BD04000010FE
:100BC0002DE9F0410C460B4EC5002B1A4FEA830865
:100BD00006EB0803988800F0EBFBB0FBF4F056F846
:100BE000083042081A6156F808301A69801A5861AC
:100BF000BDE8F08104000010094B984209D003F5CC
:100C00008053984207D0A3F58023984205D0002056
:100C1000704702207047032070470120704700BFD3
:100C200000100C4030B583B00446FFF7E5FF012308
:100C30001A4619460E4D35F8100000F081FB0723C7
:100C4000A3600023E3656360E3602362E36463659C
:100C50002365084B9C4206D00323E3601023A36264
:100C6000019B03B030BD00232361A3690193F3E727
:100C70003026001A0020084038B505460C46FFF71C
:100C8000BBFF0C4B33F8100000F092FB2301B0FBCC
:100C9000F3F3D9B2EA6842F08002EA602960C3F354
:100CA00007226A60EA6822F08002EA60B0FBF3F093
:100CB000000938BD2826001A2DE9F04F83B00190B5
:100CC0008846FFF799FF324B33F8100000F070FBB5
:100CD00006464FF0FF3701244FF0000BA246D946DD
:100CE0002AE042424B1C17E00AB31746AB46A24625
:100CF00099460135AC421ED933093007A4FB0001E7
:100D000004FB0311621908FB02F2002301F048F80A
:100D100002460B460028E4DB9742EAD3002BE8D0DA
:100D2000190CE6D1022BDFD8002DDDD0E1E7174604
:100D3000AB46A246994601341FB10F2C01D80025BD
:100D4000D8E7B9F1000F1ED0019A1146D36843F0DD
:100D50008003D3605FFA89F31360C9F307235360FC
:100D6000D36823F08003D3604FEA0A13DBB20BF0A1
:100D70000F0213438B6233090AFB03F3DA4409FBC6
:100D80000AF9B3FBF9F9484603B0BDE8F08F00BF9C
:100D90002826001A034B984201D0032070470420F4
:100DA000704700BF00400E4070B50D4614461E4609
:100DB000FFF7F0FF00F0FCFA55B104FB06F404EB7A
:100DC00040006400B0FBF4F0C0B20138C0B270BDA6
:100DD00004EB840304EB4304F1E7FFFF38B5054659
:100DE0000C46FFF7D7FF01231A46194600F0A8FA70
:100DF0000021E960084A2260217161710B232846B5
:100E0000FFF7D2FF000240F400132079400400F401
:100E100060201843286038BD801A060070B505466A
:100E20000E46046824F46F2424F470640A600B797D
:100E3000C3F10B03DBB24979FFF7B6FF44EA0020A8
:100E400033795B0403F4602303432B6070BD08B562
:100E50000A710A68FFF7E2FF08BDFFFF08B56920C5
:100E600000F0A6FA014B186008BD00BF9801001001
:100E7000F0B40B6813F0800F02D023F040030B6036
:100E8000074601253AE04B6903FB02F3B3FBF5F398
:100E90001CE01C46B0EB040C27D4674506D98D60D6
:100EA000771CCF600A618C61CB6167460132B2F575
:100EB000807F1DDC0C6814F0400FE4D0731C02FA34
:100EC00003FC4B6903FB0CF3B3FBF5F3DFF838C00D
:100ED0006345EBD9DFF834C0634509D814F0800FBF
:100EE000D7D1741C23FA04F4D4E7CCF1000CD4E776
:100EF0000136032E01DC0122D9E70135042D01DC86
:100F00000026F6E7F0BC7047FF5E4C0900D01213D4
:100F1000F0B599B005460C465C22002101A801F00D
:100F2000E5F8802300936369059323798DF80430F5
:100F300069462846FFF79CFF069BAB4227D0EB1A79
:100F40002ED41E46109B23F0400310936369159323
:100F500023798DF8443010A92846FFF789FF169BA6
:100F6000AB421FD0EB1A25D41F462B4B9D4223D9F1
:100F70000E9BED1A33D4AE423BDCBE4231DC6D46F3
:100F80000FCD0FC495E80F0084E80F0006E06D4612
:100F90000FCD0FC495E80F0084E80F0019B0F0BD25
:100FA0005B42CEE710AD0FCD0FC495E80F0084E88B
:100FB0000F00F3E75B42D7E74023089363690D9383
:100FC00008A92846FFF754FF0E9BAB42D0D108ADCD
:100FD0000FCD0FC495E80F0084E80F00DEE76D42E7
:100FE000C9E710AD0FCD0FC495E80F0084E80F00DE
:100FF000D4E7AF4207DB08AD0FCD0FC495E80F0073
:1010000084E80F00CAE710AD0FCD0FC495E80F00BC
:1010100084E80F00C2E700BF80778E0630B4054633
:1010200000231C2000E001331C2818D103EB4302ED
:1010300051000C4A0A441479844210D003EB430156
:101040004A0008498A5AAA42EDD803EB43025100EC
:10105000044A0A445288AA42E5D32046E4E730BC59
:10106000704700BF4426001A82B04FF47A73019390
:101070000D4A936923F0020192698A4201D00A4A1B
:10108000916123F00303094A1168094A914201D989
:1010900043F00403044A9361019B5A1E0192002B02
:1010A000FAD102B0704700BF00000540AC25001A1D
:1010B000FF2C31011230054B53F8200010F0010FC6
:1010C00002D1C0F304607047112070470000054052
:1010D00000F11202034B53F82220034B185C00EA84
:1010E00092007047000005403C26001A08B5102801
:1010F0000AD8DFE800F0440B0D18210924272A2D17
:1011000009093034383C400000203AE01E4838E0FD
:101110001E4BD3F82C3103F00703042B01D01C48DD
:101120002FE000202DE0194BD3F82C3103F00703FA
:10113000042B27D0164824E0164B186821E0164BE4
:1011400018681EE0154B18681BE0144B586818E02F
:1011500000F068F815E0002100F09AF811E0012194
:1011600000F096F80DE0022100F092F809E003216A
:1011700000F08EF805E0042100F08AF801E04FF459
:10118000004008BD0648FCE7001BB70000300440E3
:1011900040787D018025001AAC25001A500000100F
:1011A00080F0FA0238B505460C460879FFF79EFF35
:1011B0006061194B2B44194A934221D818B38023FC
:1011C00023600023A360E360B5FBF0F32361144ABE
:1011D000954203D903FB00F0A84207D021462846D8
:1011E000FFF796FEA3688BB1013BA360236983B12F
:1011F000E2680AB1013AE260013B2361002038BD98
:101200004FF0FF30FBE74FF0FF30F8E74FF0FF30D3
:10121000F5E74FF0FF30F2E7103A6BFF1005940B43
:10122000FF5E4C0930B583B0174D6C6CC4F303609E
:10123000FFF75CFF154B1B6801932B6C13F0010F3C
:1012400020D0C4F30743C4F30132C4F30121C4F333
:101250008015013301320DF1080C614411F8041CB2
:1012600014F0800F08D13DB94900B3FBF1F3B0FB96
:10127000F2F000FB03F003E0B0FBF2F003FB00F040
:1012800003B030BD0020FBE7000005403826001AFF
:1012900038B50C460846FFF70DFF05462046FFF718
:1012A00017FF04462846FFF721FF0134B0FBF4F096
:1012B00038BDFFFF30B400F11604A40004F18044EF
:1012C00004F5A02464681B2813D811291AD00E4DE8
:1012D00025400AB145F400650BB145F0010545EA2A
:1012E00001651630800000F1804000F5A0204560C7
:1012F00008E044F001041630800000F1804000F561
:10130000A020446030BC7047FEF7FFE01B280CD8DB
:101310001630800000F1804000F5A020406810F0F9
:10132000010F04D1C0F304607047112070471120F1
:10133000704708B5FFF7EAFFFFF7D8FE08BDFFFFCB
:1013400071B901210AB141F00401022B0AD0B0F5B4
:10135000A17F0AD3A0F59170064B43F83010704777
:101360000321EFE741F02001F1E72030024B43F881
:10137000301070470020054000100540B0F5A17FF7
:1013800009D3094AA0F5917052F8303043F00103B7
:1013900042F830307047054A203052F8303043F080
:1013A000010342F83030704700200540001005402E
:1013B00010B5B0F5A17F09D3A0F591730D4A52F88D
:1013C000334014F0010F07D1002010BD00F12003BD
:1013D000094A52F83340F4E7FFF720FEFFF7A9FF70
:1013E00014F0E00F03D10123B0FBF3F0EDE702238B
:1013F000FAE700BF00200540001005407047FFFFDE
:1014000070B58AB005460E4614464CF25033099327
:10141000062818D00023012229460420FFF74AFF9E
:101420004A4A536C43F0010353648DF8085001A9F4
:101430003046FFF7B7FE464B9E4216D9019B13F08C
:10144000400F03D0FEE7FFF70FFEE3E713F0800F36
:1014500005D023F0800301930025012607E0049BBB
:10146000013304930125002601E000252E469DF856
:101470000820019B43EA0263059A43EA0243039A68
:1014800043EA0233049A43EA022343F400632F4AF7
:1014900053642E4B1B6C13F0010FFAD00023012272
:1014A00009210420FFF706FF06B34CF250330993DD
:1014B000099B5A1E0992002BFAD1019B43F080032D
:1014C00001939DF8082043EA0263059A43EA024328
:1014D000039A43EA0233049A43EA022343F4006383
:1014E0001A4A5364002C2ED10AB070BD002DF9D0D9
:1014F0004CF250330993099B5A1E0992002BFAD1E2
:10150000049B5A1E04929DF80810019B43EA016354
:10151000059943EA0143039943EA013343EA02236D
:1015200043F40063094A5364DCE70A4800EB840192
:10153000CB788A78497810F82400FFF7BBFE013495
:10154000112CF2D9D0E70024FAE700BF00000540D3
:1015500080778E06B026001A034B984201D0832074
:101560007047A520704700BF00500C40044B9842C4
:1015700002D040F2022070474FF4F170704700BF74
:1015800000500C40036823F47F43090289B21943D9
:1015900001600261704770B506460D46FFF7E6FF31
:1015A000FFF706FF02224FF0FF33002100E0214643
:1015B000AB420BD94C1C02FB04F3B0FBF3F39D428E
:1015C000F6D2FF2CF3D902320021F1E73046FFF7C3
:1015D000D9FF70BD10B50446FFF7BEFFFFF7CEFE82
:1015E0002046FFF7C3FFFFF7C9FE636823F004033B
:1015F0006360236823F0FF0343F00703236002497D
:101600002046FFF7C8FF10BDA086010008B50B4AB1
:101610000B4B9A6003F50C731B6903F47F63202B5B
:1016200004D0FFF7A5FAFFF735FA08BD044AD2F84F
:10163000883043F47003C2F88830F2E70000001AE3
:1016400000ED00E0044B1860044A136843F0010306
:1016500013600120704700BF3C000010001000E044
:1016600000EB40008300034AD358586900F0200083
:10167000704700BFF826001A00EB40008300024AC2
:10168000D3581960704700BFF826001A2DE9F843B7
:1016900080468946194C45002A189300E618E758F9
:1016A0003846FFF7BFFA49463846FFF7E5FA072301
:1016B000BB603B680123FB6530797379B27942F0F6
:1016C00018020F4903EB401341F82320F079337AD5
:1016D000727A42F0D00203EB401341F82320B8F1B4
:1016E000010F01D0BDE8F883064AD36C43F0300304
:1016F000D3641A22C1F80823F4E700BFF826001AC1
:10170000006008400010084038B504460D462046E9
:10171000FFF7A6FF0028FAD029462046FFF7ACFFC6
:1017200038BD38B505460C46217821B12846FFF76B
:10173000EBFF0134F8E738BD014BD3E900017047F6
:101740006000001018B1044B07221A607047024B6A
:1017500000221A60704700BF10E000E038B550EA80
:1017600001042AD010F1FF3241F1FF33002B08BFF2
:10177000322A27D2144BC3E90001144B1B68A3FB88
:10178000004503FB01554FF47A7200232046294699
:1017900000F006FB0138B0F1807F09D20C4B586095
:1017A0000C4AE02182F8231000229A6007221A6076
:1017B0000120FFF7C7FF012038BD0020FFF7C2FF5F
:1017C0000020F9E70020F7E7400000109801001022
:1017D00010E000E000ED00E008B5074A136851682A
:1017E000013341F1000113605160044B1B6813B1D8
:1017F000034A1068984708BD600000106800001098
:101800005800001030B40B4D00EB80002C18285607
:10181000087094F90110117094F902201A7094F96B
:101820000320029B1A7094F90420039B1A7030BCA9
:10183000704700BF4027001A10F1020F00F0C78068
:10184000B0F1FF3F00F0C58070B584B00C460023B6
:101850008DF80F308DF80E308DF80D308DF80C307E
:101860008DF80B300DF10B03019303AB00930DF1D9
:101870000D030DF10E020DF10F01FFF7C3FF052C53
:1018800000F2A980DFE804F009812745630353488B
:10189000FFF7B4FD012004B070BD9DF80F109DF856
:1018A0000E309DF80D2042F0D00203EB41134C495D
:1018B00041F823209DF80C309DF90B20012000FAFF
:1018C00002F1464C03F5006354F8232022EA01029A
:1018D00044F82320DFE79DF80F109DF80E309DF8A7
:1018E0000D2042F0C00203EB41133D4941F8232093
:1018F0009DF80C309DF90B20012000FA02F1374CC5
:1019000003F5006354F8232022EA010244F823205F
:10191000C1E79DF80F109DF80E309DF80D2042F0A4
:10192000D80203EB41132E4941F823209DF80C30D7
:101930009DF90B20012000FA02F1284C03F5006309
:1019400054F8232022EA010244F82320A3E79DF85B
:101950000F109DF80E309DF80D2042F0C80203EBE9
:1019600041131F4941F823209DF80C309DF90B20AD
:10197000012000FA02F1194C03F5006354F823200A
:1019800022EA010244F8232085E79DF80F109DF814
:101990000E309DF80D2042F0D00203EB41131049A8
:1019A00041F823209DF80C409DF90B20012000FAFE
:1019B00002F10A4B04F5006553F82560314343F802
:1019C0002510D2B203EB44130021995463E70020A1
:1019D00070470020704700205DE700BF00400F40C7
:1019E0000060084010F1020F2DD0B0F1FF3F2CD065
:1019F00010B584B00C4600238DF80F308DF80E30F2
:101A00008DF80D308DF80C308DF80B300DF10B0387
:101A1000019303AB00930DF10D030DF10E020DF1D7
:101A20000F01FFF7EFFE9DF80C309DF80B20211CF5
:101A300018BF01215B0103F1402303F57023995482
:101A4000012004B010BD002070470020704710F145
:101A5000020F2CD0B0F1FF3F2BD000B585B0002392
:101A60008DF80F308DF80E308DF80D308DF80C306C
:101A70008DF80B300DF10B03019303AB00930DF1C7
:101A80000D030DF10E020DF10F01FFF7BBFE9DF9E5
:101A90000C309DF80B205B0103F1402303F570230C
:101AA000985C003018BF012005B05DF804FB0120F0
:101AB000704700207047FFFF08B5044B1B681B6888
:101AC000DB68034A1068984708BD00BF9C010010FE
:101AD0006C00001008B5FFF7C1F91A4B1868FFF742
:101AE000B1FD01200021FFF739FE05210020FFF79D
:101AF000A3FE00212420FFF79FFE00212520FFF7F1
:101B00009BFE00212620FFF797FE00212720FFF7EC
:101B100093FE01212820FFF78FFE01212920FFF7E6
:101B20008BFE01212A20FFF787FE01212B20FFF7E2
:101B300083FE01212C20FFF77FFE01212D20FFF7DE
:101B40007BFE08BD9801001090F820007047042229
:101B50000023C0E90823704710B5044690F900003F
:101B6000FFF775FF2379012B02D0B0FA80F040090E
:101B700010BD08B5FFF7F0FFB0FA80F0400908BDCE
:101B800008B5FFF7F6FF08B1012008BD0020FCE70B
:101B900010B50446FFF7F4FF207400220023C4E9C7
:101BA000062300236374A374E374237510BD10B57A
:101BB000044601600271DDE90223C0E90223FFF758
:101BC000E7FF00220023C4E908239DF8103084F8C1
:101BD00028309DF8143084F829309DF8183084F8A6
:101BE0002A30DDE90823C4E90C230A9BA3630B9B7D
:101BF000E3630C9B236410BD10B504468168C06884
:101C0000A369E2695B1840EB0202A361E261237CF5
:101C1000032B50D8DFE803F0021F5072637C2BB90E
:101C20000123637400220023C4E908232046FFF740
:101C3000A0FF28B10223237400220023C4E9062355
:101C4000237CC3B30023637400220023C4E906236A
:101C5000C4E908232FE0A37C2BB90123A37400223D
:101C60000023C4E908232046FFF776FF08B10323C9
:101C7000237494F82A309BB1D4E90601D4E90C23EB
:101C8000994208BF90420BD3D4E90823134307D1EC
:101C900003220023C4E90823236C0BB100209847DA
:101CA000237C012B07D00023A37400220023C4E966
:101CB0000623C4E9082310BDE37C0BB90123E374B8
:101CC0002046FFF756FF68B10123237494F82830AB
:101CD00053B101220023C4E90823A36B23B10020E0
:101CE000984701E000232374237C022BE3D00023D8
:101CF000E37400220023C4E90623DCE7237D0BB94B
:101D0000012323752046FFF727FF68B100232374C2
:101D100094F8293053B102220023C4E90823E36B6D
:101D200023B10020984701E001232374237C032B77
:101D3000C1D00023237500220023C4E90623BAE79B
:101D400010B5044610461946044BD3E9002300F0B1
:101D500027F8C4E902010023237410BD40000010DD
:101D6000F8B50446057C3DB9FFF7E6FCC4E900017F
:101D7000012323742846F8BDFFF7DEFC2368626860
:101D8000C61A61EB0207D4E902239F4208BF9642BC
:101D900003D3002323740125ECE70025EAE7FFFFC6
:101DA00053B94AB9002908BF00281CBF4FF0FF31C2
:101DB0004FF0FF3000F074B9ADF1080C6DE904CEBE
:101DC00000F006F8DDF804E0DDE9022304B0704716
:101DD0002DE9F047089E04468846002B40F0858098
:101DE0008A42154648D9B2FA82F24AB1C2F12007B6
:101DF00001FA02F320FA07F7954047EA03089440F6
:101E00004FEA154E230CB8FBFEF71FFA85FC0EFBBC
:101E1000178843EA084307FB0CF1994209D9EB18EC
:101E200007F1FF3080F0E380994240F2E080023F0A
:101E30002B445B1AA4B2B3FBFEF00EFB103344EA52
:101E4000034400FB0CFCA44509D92C1900F1FF3315
:101E500080F0CB80A44540F2C88002382C4440EA90
:101E60000740A4EB0C0400271EB1D4400023C6E9B0
:101E700000433946BDE8F087002A53D0B2FA82F217
:101E8000002A40F0B680491B4FEA154E1FFA85F82C
:101E90000127B1FBFEFC230C0EFB1C1143EA01439E
:101EA00008FB0CF1994207D9EB180CF1FF3002D274
:101EB000994200F2EC808446591AA3B2B1FBFEF0BD
:101EC0000EFB101443EA044408FB00F8A04507D9B0
:101ED0002C1900F1FF3302D2A04500F2DC80184635
:101EE000A4EB080440EA0C40BEE78B4208D9002E60
:101EF00078D00027C6E9000138463946BDE8F087AA
:101F0000B3FA83F77FB98B4202D3824200F2BD80DD
:101F1000841A61EB030301209846002EA9D0C6E97C
:101F20000048A6E7FFDEC7F12005BB4022FA05FC0A
:101F30004CEA030C01FA07F420FA05F821FA05F33C
:101F40004FEA1C4E48EA0404B3FBFEF9210C0EFBD9
:101F500019331FFA8CF841EA034309FB08FA9A4542
:101F600002FA07F200FA07F10BD91CEB030309F19F
:101F7000FF3080F088809A4540F28580A9F10209FF
:101F80006344A3EB0A03A4B2B3FBFEF00EFB1033D1
:101F900044EA034400FB08F8A04508D91CEB0404FC
:101FA00000F1FF336BD2A04569D90238644440EA9E
:101FB0000940A4EB0804A0FB02894C45C6464B46E9
:101FC00054D351D0002E69D0B1EB0E0264EB030460
:101FD00004FA05F522FA07F3FC401D43C6E9005454
:101FE000002746E73746304643E7184637E70746B7
:101FF0001FE7C2F1200320FA03F7954001FA02F02F
:1020000021FA03F34FEA154E3843010CB3FBFEF7F8
:102010001FFA85F80EFB173341EA034107FB08F36B
:102020008B4204FA02F407D9691807F1FF3C28D261
:102030008B4226D9023F2944CB1A81B2B3FBFEF072
:102040000EFB103341EA034100FB08F38B4207D932
:10205000691800F1FF3C10D28B420ED90238294496
:10206000C91A40EA074714E74145ABD2B8EB020E64
:1020700069EB0C0201381346A4E76046F0E7184606
:1020800095E76746D8E781467BE7384645E7ACF1F8
:10209000020C2B4410E702382C4421E73746E8E6CF
:1020A000704700BF70B50D4E0D4D761BB61006D0B3
:1020B0000024013455F8043B9847A642F9D1094E53
:1020C000094D761BFEF72BFCB61006D00024013418
:1020D00055F8043B9847A642F9D170BD2828001A4C
:1020E0002828001A2C28001A2828001AF0B486077D
:1020F00046D0541E002A3CD0CAB2034602E014F176
:10210000FF3436D303F8012B9D07F8D1032C29D9CE
:10211000CDB245EA05250F2C45EA054533D9A4F192
:102120001006360903F1200707EB061703F110022A
:1021300042E9045542E902551032BA42F8D1721C04
:1021400014F00C0F03EB021204F00F0613D0331F30
:1021500023F003030433134442F8045B9342FBD19E
:1021600006F003042CB1C9B21C4403F8011B9C42C5
:10217000FBD1F0BC704734461346002CF3D1F8E78E
:1021800014460346C2E71A462646E0E753656C65E7
:102190006363696F6E65206C61206F7063696F6E39
:1021A00020717565206465736561206D6564696182
:1021B0006E746520656C2075736F206465206C6F8C
:1021C000732070756C7361646F7265732E0D0A00F5
:1021D000312E43616C6962726163696F6E0D0A3200
:1021E0002E546974756C6163696F6E0D0A332E43EA
:1021F0006F6E66696775726163696F6E0D0A342E62
:10220000436F6E6578696F6E2E0D0A0A000000003C
:1022100053656C656363696F6E6520656C207061E2
:1022200074726F6E20636F6E20656C206375616CD5
:102230002064657365612063616C696272617220FC
:10224000656C20746974756C61646F723A2E0D0A46
:1022500000000000312E42756666657220410D0A4D
:10226000322E42756666657220420D0A332E427523
:102270006666657220430D0A342E52656772657377
:1022800061722E0D0A0A000053652063616C696259
:10229000726F20656C2042756666657220412E2043
:1022A00050726573696F6E652034207061726120B1
:1022B00072656772657361722E0D0A0A0000000074
:1022C00053652063616C6962726F20656C20427592
:1022D0006666657220422E2050726573696F6E6566
:1022E000203420706172612072656772657361725B
:1022F0002E0D0A0A0000000053652063616C6962BC
:10230000726F20656C2042756666657220432E20D0
:1023100050726573696F6E65203420706172612040
:1023200072656772657361722E0D0A0A0000000003
:1023300053652065737461207265616C697A616EA2
:10234000646F206C6120746974756C6163696F6E71
:102350002E2050726573696F6E6520342070617233
:10236000612066696E616C697A617220792072659C
:1023700067726573617220616C206D656E75206196
:102380006E746572696F722E0D0A0A00312E436FEA
:102390006E666967757261722062756666657273D2
:1023A0000D0A322E53656C656363696F6E6172202E
:1023B000766F6C756D656E20646520636F727465F1
:1023C0000D0A332E4C696D7069617220626F6D6207
:1023D000610D0A342E526567726573617220616CFB
:1023E000206D656E7520616E746572696F720D0A7D
:1023F0000A000000456E20657374612070616E7480
:10240000616C6C6120736520706F64726120636120
:102410007267617220656C2076616C6F7220636FE9
:1024200072726573706F6E6469656E746520612089
:102430006361646120756E6F206465206C6F73202A
:102440007472657320706174726F6E657320286298
:10245000756666657273292061207574696C697A86
:10246000617220656E206C612063616C69627261CB
:1024700063696F6E2E0D0A0050726573696F6E6529
:10248000203420706172612066696E616C697A61C6
:1024900072207920726567726573617220616C20A9
:1024A0006D656E7520616E746572696F722E0D0AAE
:1024B0000A000000456E20657374612070616E74BF
:1024C000616C6C6120736520706F64726120636160
:1024D0007267617220656C2076616C6F7220636F29
:1024E00072726573706F6E6469656E746520616C7D
:1024F00020766F6C756D656E20646520636F7274F5
:10250000652E0D0A000000004C696D7069616E64F3
:102510006F206C6120626F6D62612E2E2E0D0A009D
:10252000456E20657374612070616E74616C6C61BE
:10253000207365206D6F7374726172616E206C6FB1
:1025400073206461746F73207061726120636F6EB9
:102550006563746172736520616C20646973706F68
:1025600073697469766F206D656469616E74652046
:10257000756E612072656420776966692E0D0A00A8
:102580000000000000040008000901090500050121
:102590000502000E010B010C030003030304050FE9
:1025A00005100305030603070208FFFF001BB70021
:1025B000010F010102004400020144000202440034
:1025C000020A4000020B4000020C400001005000D3
:1025D00001015000010250000106500006015000A8
:1025E0000604500006055000060754000608540073
:1025F00006095000060A5000060B5000060C500059
:102600000F04F0000103D5000104D50007011600F6
:10261000070256000203520002045200090552004C
:102620000906570006025700C201A2018201620199
:1026300081008200A100A20001020408030F0F0F15
:10264000FF000000000005000A002000240009002F
:102650004000400005006000A6000400C000C30068
:102660000200E000E0000100000100010300200181
:1026700020010600400140010C0042014201190006
:10268000620162011300820182011200A201A20113
:102690001100C201C2011000E201E2010F000202BA
:1026A00002020E00220222020D00230223021C005D
:1026B00000010100090901000A09010001070101E7
:1026C00002090100060901000C0901010D090100C0
:1026D0000E0901000F090100100901001109010094
:1026E0001209010013090100141101001911010060
:1026F0001A1101001B110100001008400604020617
:10270000050218000010084009050709060718000F
:1027100000200840000000000000190000100C40DC
:102720000701060702061A0000100C40010F010104
:1027300010011A0000200C400203020204021B00D8
:102740000401000201070500030D01050001080452
:102750000200020204030002030400000200070456
:1027600000030C0302040509030104050802030425
:1027700005030204040504060C000208060B00030E
:10278000070609000305060704050F0604000303F6
:102790000404000204040500020504060002060405
:1027A0000804050C040A04050E010300000A0114C4
:1027B00000000F011200000D011100000C011000BB
:1027C0000003070700030F000100000100000000E4
:1027D00000060A00030606080405100605000304A7
:1027E0000601000300040904050D010400000B01AB
:1027F0000F000002010000000401010000080102B6
:10280000000009010600010902000405000201049C
:1028100005010202040502020A00000E020B00017B
:082820000B020C00010CFFFF8C
:04282800C50A001AC3
:08282C00A4F5FF7F010000008C
:102834006400000000100A40220000007D0B001A12
:102844000000000000000000000000000000000084
:1028540000000E40010000007D0B001A0000000083
:1028640000000000000000000000000000CB280C65
:0828740001000000000000005B
:040000051A00089540
:00000001FF
